:100000000C9434000C943E000C943E000C943E0082
:100010000C943E000C943E000C943E000C943E0068
:100020000C943E000C943E000C943E000C943E0058
:100030000C943E000C943E000C943E000C943E0048
:100040000C943E000C943E000C943E000C943E0038
:100050000C943E000C943E000C943E000C943E0028
:100060000C943E000C943E0011241FBECFEFD8E04C
:10007000DEBFCDBF0E9440000C9479000C940000BC
:1000800080E384B983EF8AB98CE08BB929B12470FD
:1000900089B191E0582F587083FF90E081E02111E1
:1000A00080E0982335B141E0211101C040E081E0BA
:1000B000511180E08423892B8295880F807E832BC9
:1000C00085B92FEF39E688E1215030408040E1F7D3
:1000D00000C0000085B19295907F982B95B99FEF55
:1000E00029E638E1915020403040E1F700C000009F
:0600F000CDCFF894FFCF14
:00000001FF
